:020000040800F2
:100000000804002001010008BD0200087101000879
:10001000BB0200086D010008430300080000000057
:10002000000000000000000000000000C102000805
:100030006F01000800000000BF020008C3020008B2
:100040001B0100081B0100081B0100081B01000820
:100050001B0100081B0100081B0100081B01000810
:100060001B0100081B0100081B0100081B01000800
:100070001B0100081B0100081B0100081B010008F0
:100080001B0100081B0100081B0100081B010008E0
:100090001B0100081B0100081B0100081B010008D0
:1000A0001B0100081B0100081B0100081B010008C0
:1000B0001B0100081B0100081B0100081B010008B0
:1000C0001B0100081B0100081B0100081B010008A0
:1000D0001B0100081B0100081B0100081B01000890
:1000E0001B0100081B0100081B010008DFF80CD0F1
:1000F00000F02AF8004800476503000808040020C3
:100100000648804706480047FEE7FEE7FEE7FEE7B1
:10011000FEE7FEE7FEE7FEE7FEE7FEE74103000835
:10012000ED000008D2B201E000F8012B491EFBD21D
:1001300070470022F6E710B513460A4604461946F2
:10014000FFF7F0FF204610BD064C074D06E0E068C3
:1001500040F0010394E8070098471034AC42F6D30E
:10016000FFF7C8FF0C0400082C040008FEE77047E6
:10017000FEE70000044908B58A6902438A6189697B
:100180000140009108BD000000100240F0B50A686F
:10019000C2F30F2595FAA5F2B2FA82F366E00122C6
:1001A0009A402A4261D0082B03D240F201129A40B1
:1001B00006E0A3F108024FF00114944044F080627D
:1001C0000C69C668170A97FAA7F7B7FA87F726EAFD
:1001D0001226BC402643C66092FAA2F700EB1264D6
:1001E000B7FA87F74FEA870C0F27266807FA0CF74C
:1001F000BE4392FAA2F7D1F804E0B7FA87F7BF003E
:100200000EFA07FE46EA0E0626604F68012F01D05F
:10021000092F2AD192FAA2F7B7FA87F74FEA870C8B
:10022000032707FA0CF7BE4392FAA2F7B7FA87F74B
:10023000D1F808E0BF000EFA07FE92FAA2FC46EAE7
:100240000E06BCFA8CFC4FEA8C0E4FF0040C2660B4
:100250000CFA0EFC92FAA2F2B2FA82F2CF68920085
:1002600026EA0C0697403E4326605B1C35FA03F2F3
:1002700095D10020F0BD4FF47A71B0FBF1F14FF051
:10028000E020491E41610021816105210161704723
:1002900001490860704700000000002008B54FF0D9
:1002A000E0210A690092421C00D010460A69D2037C
:1002B00000D5401E0028F9D108BDFEE7FEE77047D3
:1002C000704770471B4810B5016821F007010160B5
:1002D000016811F0070FFBD11748016821F0F80100
:1002E00041F080010160016841F001010160016895
:1002F000C1F340010029FAD0416821F0F0014160CA
:10030000416821F4E0614160416821F4605141603D
:10031000416821F003014160416811F00C0FFBD1ED
:10032000064C2046FFF7A7FF2046BDE81040FFF728
:10033000AFBF0000002002400010024000127A000F
:100340007047FEE702E008C8121F08C1002AFAD170
:1003500070477047002001E001C1121F002AFBD145
:100360007047000086B00120FFF704FF2148C169F3
:1003700041F08051C161C0691F4900F08050009078
:1003800008684FF6FF0210401C4A40F440701043CA
:1003900008601B48416821F0E0614160416841F01C
:1003A00000714160FFF78EFF14216846FFF7C1FE20
:1003B0001020FFF7DFFE0420FFF7DCFE124D11498D
:1003C0004FF4005428466C610091012101910221F3
:1003D0000291002103916946FFF7D8FE4FF47A7627
:1003E0003046FFF75BFF6C613046FFF757FF2C612B
:1003F000F6E70000001002400CED00E00000FA05F6
:100400000000014020002004001001402C040008DE
:10041000000000200400000044030008300400082D
:100420000400002004040000540300080024F40029
:04000005080000ED02
:00000001FF
